{
  "transactions": [
    {
      "hash": "0xda2af1d7bb4b04f677d48948e8c7aaae5b96a1394dc12f9420589021db66f029",
      "transactionType": "CREATE",
      "contractName": "MockCbBTC",
      "contractAddress": "0xb9b962177c15353cd6aa49e26c2b627b9cc35457",
      "function": null,
      "arguments": [
        "10000000000"
      ],
      "transaction": {
        "from": "0x23942af0f04a502516595b45029680fb64f87840",
        "gas": "0xb40e1",
        "value": "0x0",
        "input": "0x608060405234801561000f575f80fd5b50604051610b04380380610b0483398101604081905261002e9161024c565b6040518060400160405280601481526020017f436f696e6261736520577261707065642042544300000000000000000000000081525060405180604001604052806005815260200164636242544360d81b815250816003908161009191906102fb565b50600461009e82826102fb565b5050505f6002826100af91906103c9565b90506100bb33826100e9565b6100e2734db8b3faf4f26c04d6e456e8d5a0c02941eb772e6100dd83856103e8565b6100e9565b5050610414565b6001600160a01b0382166101175760405163ec442f0560e01b81525f60048201526024015b60405180910390fd5b6101225f8383610126565b5050565b6001600160a01b038316610150578060025f8282546101459190610401565b909155506101c09050565b6001600160a01b0383165f90815260208190526040902054818110156101a25760405163391434e360e21b81526001600160a01b0385166004820152602481018290526044810183905260640161010e565b6001600160a01b0384165f9081526020819052604090209082900390555b6001600160a01b0382166101dc576002805482900390556101fa565b6001600160a01b0382165f9081526020819052604090208054820190555b816001600160a01b0316836001600160a01b03167fddf252ad1be2c89b69c2b068fc378daa952ba7f163c4a11628f55a4df523b3ef8360405161023f91815260200190565b60405180910390a3505050565b5f6020828403121561025c575f80fd5b5051919050565b634e487b7160e01b5f52604160045260245ffd5b600181811c9082168061028b57607f821691505b6020821081036102a957634e487b7160e01b5f52602260045260245ffd5b50919050565b601f8211156102f657805f5260205f20601f840160051c810160208510156102d45750805b601f840160051c820191505b818110156102f3575f81556001016102e0565b50505b505050565b81516001600160401b0381111561031457610314610263565b610328816103228454610277565b846102af565b6020601f82116001811461035a575f83156103435750848201515b5f19600385901b1c1916600184901b1784556102f3565b5f84815260208120601f198516915b828110156103895787850151825560209485019460019092019101610369565b50848210156103a657868401515f19600387901b60f8161c191681555b50505050600190811b01905550565b634e487b7160e01b5f52601160045260245ffd5b5f826103e357634e487b7160e01b5f52601260045260245ffd5b500490565b818103818111156103fb576103fb6103b5565b92915050565b808201808211156103fb576103fb6103b5565b6106e3806104215f395ff3fe608060405234801561000f575f80fd5b5060043610610090575f3560e01c8063313ce56711610063578063313ce567146100fa57806370a082311461010957806395d89b4114610131578063a9059cbb14610139578063dd62ed3e1461014c575f80fd5b806306fdde0314610094578063095ea7b3146100b257806318160ddd146100d557806323b872dd146100e7575b5f80fd5b61009c610184565b6040516100a99190610553565b60405180910390f35b6100c56100c03660046105a3565b610214565b60405190151581526020016100a9565b6002545b6040519081526020016100a9565b6100c56100f53660046105cb565b61022d565b604051600881526020016100a9565b6100d9610117366004610605565b6001600160a01b03165f9081526020819052604090205490565b61009c610250565b6100c56101473660046105a3565b61025f565b6100d961015a366004610625565b6001600160a01b039182165f90815260016020908152604080832093909416825291909152205490565b60606003805461019390610656565b80601f01602080910402602001604051908101604052809291908181526020018280546101bf90610656565b801561020a5780601f106101e15761010080835404028352916020019161020a565b820191905f5260205f20905b8154815290600101906020018083116101ed57829003601f168201915b5050505050905090565b5f3361022181858561026c565b60019150505b92915050565b5f3361023a85828561027e565b6102458585856102fe565b506001949350505050565b60606004805461019390610656565b5f336102218185856102fe565b610279838383600161035b565b505050565b6001600160a01b038381165f908152600160209081526040808320938616835292905220545f1981146102f857818110156102ea57604051637dc7a0d960e11b81526001600160a01b038416600482015260248101829052604481018390526064015b60405180910390fd5b6102f884848484035f61035b565b50505050565b6001600160a01b03831661032757604051634b637e8f60e11b81525f60048201526024016102e1565b6001600160a01b0382166103505760405163ec442f0560e01b81525f60048201526024016102e1565b61027983838361042d565b6001600160a01b0384166103845760405163e602df0560e01b81525f60048201526024016102e1565b6001600160a01b0383166103ad57604051634a1406b160e11b81525f60048201526024016102e1565b6001600160a01b038085165f90815260016020908152604080832093871683529290522082905580156102f857826001600160a01b0316846001600160a01b03167f8c5be1e5ebec7d5bd14f71427d1e84f3dd0314c0f7b2291e5b200ac8c7c3b9258460405161041f91815260200190565b60405180910390a350505050565b6001600160a01b038316610457578060025f82825461044c919061068e565b909155506104c79050565b6001600160a01b0383165f90815260208190526040902054818110156104a95760405163391434e360e21b81526001600160a01b038516600482015260248101829052604481018390526064016102e1565b6001600160a01b0384165f9081526020819052604090209082900390555b6001600160a01b0382166104e357600280548290039055610501565b6001600160a01b0382165f9081526020819052604090208054820190555b816001600160a01b0316836001600160a01b03167fddf252ad1be2c89b69c2b068fc378daa952ba7f163c4a11628f55a4df523b3ef8360405161054691815260200190565b60405180910390a3505050565b602081525f82518060208401528060208501604085015e5f604082850101526040601f19601f83011684010191505092915050565b80356001600160a01b038116811461059e575f80fd5b919050565b5f80604083850312156105b4575f80fd5b6105bd83610588565b946020939093013593505050565b5f805f606084860312156105dd575f80fd5b6105e684610588565b92506105f460208501610588565b929592945050506040919091013590565b5f60208284031215610615575f80fd5b61061e82610588565b9392505050565b5f8060408385031215610636575f80fd5b61063f83610588565b915061064d60208401610588565b90509250929050565b600181811c9082168061066a57607f821691505b60208210810361068857634e487b7160e01b5f52602260045260245ffd5b50919050565b8082018082111561022757634e487b7160e01b5f52601160045260245ffdfea2646970667358221220958b63f26613884e5e9aaf573f2234e6088699e42ec39aadff2df7c3f8127edd64736f6c634300081a003300000000000000000000000000000000000000000000000000000002540be400",
        "nonce": "0x0",
        "chainId": "0x14a34"
      },
      "additionalContracts": [],
      "isFixedGasLimit": false
    },
    {
      "hash": "0xc97ea09fbdb8a480e87b40d523eb69a2a9939e56d5092ddb94c1909327503003",
      "transactionType": "CREATE",
      "contractName": "MockUSDC",
      "contractAddress": "0xb6c34a382a45f93682b03dca9c48e3710e76809f",
      "function": null,
      "arguments": [
        "10000000000000"
      ],
      "transaction": {
        "from": "0x23942af0f04a502516595b45029680fb64f87840",
        "gas": "0xb3fd8",
        "value": "0x0",
        "input": "0x608060405234801561000f575f80fd5b50604051610aee380380610aee83398101604081905261002e91610236565b604051806040016040528060088152602001672aa9a21021b7b4b760c11b815250604051806040016040528060048152602001635553444360e01b815250816003908161007b91906102e5565b50600461008882826102e5565b5050505f60028261009991906103b3565b90506100a533826100d3565b6100cc734db8b3faf4f26c04d6e456e8d5a0c02941eb772e6100c783856103d2565b6100d3565b50506103fe565b6001600160a01b0382166101015760405163ec442f0560e01b81525f60048201526024015b60405180910390fd5b61010c5f8383610110565b5050565b6001600160a01b03831661013a578060025f82825461012f91906103eb565b909155506101aa9050565b6001600160a01b0383165f908152602081905260409020548181101561018c5760405163391434e360e21b81526001600160a01b038516600482015260248101829052604481018390526064016100f8565b6001600160a01b0384165f9081526020819052604090209082900390555b6001600160a01b0382166101c6576002805482900390556101e4565b6001600160a01b0382165f9081526020819052604090208054820190555b816001600160a01b0316836001600160a01b03167fddf252ad1be2c89b69c2b068fc378daa952ba7f163c4a11628f55a4df523b3ef8360405161022991815260200190565b60405180910390a3505050565b5f60208284031215610246575f80fd5b5051919050565b634e487b7160e01b5f52604160045260245ffd5b600181811c9082168061027557607f821691505b60208210810361029357634e487b7160e01b5f52602260045260245ffd5b50919050565b601f8211156102e057805f5260205f20601f840160051c810160208510156102be5750805b601f840160051c820191505b818110156102dd575f81556001016102ca565b50505b505050565b81516001600160401b038111156102fe576102fe61024d565b6103128161030c8454610261565b84610299565b6020601f821160018114610344575f831561032d5750848201515b5f19600385901b1c1916600184901b1784556102dd565b5f84815260208120601f198516915b828110156103735787850151825560209485019460019092019101610353565b508482101561039057868401515f19600387901b60f8161c191681555b50505050600190811b01905550565b634e487b7160e01b5f52601160045260245ffd5b5f826103cd57634e487b7160e01b5f52601260045260245ffd5b500490565b818103818111156103e5576103e561039f565b92915050565b808201808211156103e5576103e561039f565b6106e38061040b5f395ff3fe608060405234801561000f575f80fd5b5060043610610090575f3560e01c8063313ce56711610063578063313ce567146100fa57806370a082311461010957806395d89b4114610131578063a9059cbb14610139578063dd62ed3e1461014c575f80fd5b806306fdde0314610094578063095ea7b3146100b257806318160ddd146100d557806323b872dd146100e7575b5f80fd5b61009c610184565b6040516100a99190610553565b60405180910390f35b6100c56100c03660046105a3565b610214565b60405190151581526020016100a9565b6002545b6040519081526020016100a9565b6100c56100f53660046105cb565b61022d565b604051600681526020016100a9565b6100d9610117366004610605565b6001600160a01b03165f9081526020819052604090205490565b61009c610250565b6100c56101473660046105a3565b61025f565b6100d961015a366004610625565b6001600160a01b039182165f90815260016020908152604080832093909416825291909152205490565b60606003805461019390610656565b80601f01602080910402602001604051908101604052809291908181526020018280546101bf90610656565b801561020a5780601f106101e15761010080835404028352916020019161020a565b820191905f5260205f20905b8154815290600101906020018083116101ed57829003601f168201915b5050505050905090565b5f3361022181858561026c565b60019150505b92915050565b5f3361023a85828561027e565b6102458585856102fe565b506001949350505050565b60606004805461019390610656565b5f336102218185856102fe565b610279838383600161035b565b505050565b6001600160a01b038381165f908152600160209081526040808320938616835292905220545f1981146102f857818110156102ea57604051637dc7a0d960e11b81526001600160a01b038416600482015260248101829052604481018390526064015b60405180910390fd5b6102f884848484035f61035b565b50505050565b6001600160a01b03831661032757604051634b637e8f60e11b81525f60048201526024016102e1565b6001600160a01b0382166103505760405163ec442f0560e01b81525f60048201526024016102e1565b61027983838361042d565b6001600160a01b0384166103845760405163e602df0560e01b81525f60048201526024016102e1565b6001600160a01b0383166103ad57604051634a1406b160e11b81525f60048201526024016102e1565b6001600160a01b038085165f90815260016020908152604080832093871683529290522082905580156102f857826001600160a01b0316846001600160a01b03167f8c5be1e5ebec7d5bd14f71427d1e84f3dd0314c0f7b2291e5b200ac8c7c3b9258460405161041f91815260200190565b60405180910390a350505050565b6001600160a01b038316610457578060025f82825461044c919061068e565b909155506104c79050565b6001600160a01b0383165f90815260208190526040902054818110156104a95760405163391434e360e21b81526001600160a01b038516600482015260248101829052604481018390526064016102e1565b6001600160a01b0384165f9081526020819052604090209082900390555b6001600160a01b0382166104e357600280548290039055610501565b6001600160a01b0382165f9081526020819052604090208054820190555b816001600160a01b0316836001600160a01b03167fddf252ad1be2c89b69c2b068fc378daa952ba7f163c4a11628f55a4df523b3ef8360405161054691815260200190565b60405180910390a3505050565b602081525f82518060208401528060208501604085015e5f604082850101526040601f19601f83011684010191505092915050565b80356001600160a01b038116811461059e575f80fd5b919050565b5f80604083850312156105b4575f80fd5b6105bd83610588565b946020939093013593505050565b5f805f606084860312156105dd575f80fd5b6105e684610588565b92506105f460208501610588565b929592945050506040919091013590565b5f60208284031215610615575f80fd5b61061e82610588565b9392505050565b5f8060408385031215610636575f80fd5b61063f83610588565b915061064d60208401610588565b90509250929050565b600181811c9082168061066a57607f821691505b60208210810361068857634e487b7160e01b5f52602260045260245ffd5b50919050565b8082018082111561022757634e487b7160e01b5f52601160045260245ffdfea26469706673582212209765febf3b728217d213bc136cfeab01322fdea3c49d089d9a3c5479f6cd4fff64736f6c634300081a0033000000000000000000000000000000000000000000000000000009184e72a000",
        "nonce": "0x1",
        "chainId": "0x14a34"
      },
      "additionalContracts": [],
      "isFixedGasLimit": false
    },
    {
      "hash": "0xea2e660b05319c5d420d327f1c75cba1106b6922b26dd467277a3cc8c80ffcda",
      "transactionType": "CALL",
      "contractName": null,
      "contractAddress": "0x05e73354cfdd6745c338b50bcfdfa3aa6fa03408",
      "function": "initialize((address,address,uint24,int24,address),uint160)",
      "arguments": [
        "(0xB6c34A382a45F93682B03dCa9C48e3710e76809F, 0xb9B962177c15353cd6AA49E26c2b627b9CC35457, 3000, 60, 0x0000000000000000000000000000000000000000)",
        "79228162514264337593543950336"
      ],
      "transaction": {
        "from": "0x23942af0f04a502516595b45029680fb64f87840",
        "to": "0x05e73354cfdd6745c338b50bcfdfa3aa6fa03408",
        "gas": "0x11609",
        "value": "0x0",
        "input": "0x6276cbbe000000000000000000000000b6c34a382a45f93682b03dca9c48e3710e76809f000000000000000000000000b9b962177c15353cd6aa49e26c2b627b9cc354570000000000000000000000000000000000000000000000000000000000000bb8000000000000000000000000000000000000000000000000000000000000003c00000000000000000000000000000000000000000000000000000000000000000000000000000000000000000000000000000001000000000000000000000000",
        "nonce": "0x2",
        "chainId": "0x14a34"
      },
      "additionalContracts": [],
      "isFixedGasLimit": false
    },
    {
      "hash": "0x60fe850121f14e4ba0c3555b54f3b0ddc74371b23f1e6b5041a24b261ae5200c",
      "transactionType": "CALL",
      "contractName": "MockUSDC",
      "contractAddress": "0xb6c34a382a45f93682b03dca9c48e3710e76809f",
      "function": "approve(address,uint256)",
      "arguments": [
        "0x000000000022D473030F116dDEE9F6B43aC78BA3",
        "115792089237316195423570985008687907853269984665640564039457584007913129639935"
      ],
      "transaction": {
        "from": "0x23942af0f04a502516595b45029680fb64f87840",
        "to": "0xb6c34a382a45f93682b03dca9c48e3710e76809f",
        "gas": "0x10a53",
        "value": "0x0",
        "input": "0x095ea7b3000000000000000000000000000000000022d473030f116ddee9f6b43ac78ba3ffffffffffffffffffffffffffffffffffffffffffffffffffffffffffffffff",
        "nonce": "0x3",
        "chainId": "0x14a34"
      },
      "additionalContracts": [],
      "isFixedGasLimit": false
    },
    {
      "hash": "0x688dbaaadaa5c7463491b4d7c90849510c03868c7f542fc32171cbe7b3ce163c",
      "transactionType": "CALL",
      "contractName": "MockCbBTC",
      "contractAddress": "0xb9b962177c15353cd6aa49e26c2b627b9cc35457",
      "function": "approve(address,uint256)",
      "arguments": [
        "0x000000000022D473030F116dDEE9F6B43aC78BA3",
        "115792089237316195423570985008687907853269984665640564039457584007913129639935"
      ],
      "transaction": {
        "from": "0x23942af0f04a502516595b45029680fb64f87840",
        "to": "0xb9b962177c15353cd6aa49e26c2b627b9cc35457",
        "gas": "0x10a53",
        "value": "0x0",
        "input": "0x095ea7b3000000000000000000000000000000000022d473030f116ddee9f6b43ac78ba3ffffffffffffffffffffffffffffffffffffffffffffffffffffffffffffffff",
        "nonce": "0x4",
        "chainId": "0x14a34"
      },
      "additionalContracts": [],
      "isFixedGasLimit": false
    },
    {
      "hash": "0x94fa82ac1947bf3177643ad5506b0be8d02410b3aa83bfbfbc40d0c1e5a860c2",
      "transactionType": "CALL",
      "contractName": null,
      "contractAddress": "0x000000000022d473030f116ddee9f6b43ac78ba3",
      "function": "approve(address,address,uint160,uint48)",
      "arguments": [
        "0xB6c34A382a45F93682B03dCa9C48e3710e76809F",
        "0x4B2C77d209D3405F41a037Ec6c77F7F5b8e2ca80",
        "1461501637330902918203684832716283019655932542975",
        "281474976710655"
      ],
      "transaction": {
        "from": "0x23942af0f04a502516595b45029680fb64f87840",
        "to": "0x000000000022d473030f116ddee9f6b43ac78ba3",
        "gas": "0x1112d",
        "value": "0x0",
        "input": "0x87517c45000000000000000000000000b6c34a382a45f93682b03dca9c48e3710e76809f0000000000000000000000004b2c77d209d3405f41a037ec6c77f7f5b8e2ca80000000000000000000000000ffffffffffffffffffffffffffffffffffffffff0000000000000000000000000000000000000000000000000000ffffffffffff",
        "nonce": "0x5",
        "chainId": "0x14a34"
      },
      "additionalContracts": [],
      "isFixedGasLimit": false
    },
    {
      "hash": "0xb000b8ec25e7d6c5a6cfad66d12d55c6062b52e1c99d2b0ec19adfa1de6a6879",
      "transactionType": "CALL",
      "contractName": null,
      "contractAddress": "0x000000000022d473030f116ddee9f6b43ac78ba3",
      "function": "approve(address,address,uint160,uint48)",
      "arguments": [
        "0xb9B962177c15353cd6AA49E26c2b627b9CC35457",
        "0x4B2C77d209D3405F41a037Ec6c77F7F5b8e2ca80",
        "1461501637330902918203684832716283019655932542975",
        "281474976710655"
      ],
      "transaction": {
        "from": "0x23942af0f04a502516595b45029680fb64f87840",
        "to": "0x000000000022d473030f116ddee9f6b43ac78ba3",
        "gas": "0x1112d",
        "value": "0x0",
        "input": "0x87517c45000000000000000000000000b9b962177c15353cd6aa49e26c2b627b9cc354570000000000000000000000004b2c77d209d3405f41a037ec6c77f7f5b8e2ca80000000000000000000000000ffffffffffffffffffffffffffffffffffffffff0000000000000000000000000000000000000000000000000000ffffffffffff",
        "nonce": "0x6",
        "chainId": "0x14a34"
      },
      "additionalContracts": [],
      "isFixedGasLimit": false
    },
    {
      "hash": "0x7557d214c8bae18a3ef25571b9fe7d343b3aaab66d30444bc639429e480a1da8",
      "transactionType": "CALL",
      "contractName": null,
      "contractAddress": "0x4b2c77d209d3405f41a037ec6c77f7f5b8e2ca80",
      "function": "modifyLiquidities(bytes,uint256)",
      "arguments": [
        "0x000000000000000000000000000000000000000000000000000000000000004000000000000000000000000000000000000000000000000000000000000000800000000000000000000000000000000000000000000000000000000000000002020d00000000000000000000000000000000000000000000000000000000000000000000000000000000000000000000000000000000000000000000000000020000000000000000000000000000000000000000000000000000000000000040000000000000000000000000000000000000000000000000000000000000020000000000000000000000000000000000000000000000000000000000000001a0000000000000000000000000b6c34a382a45f93682b03dca9c48e3710e76809f000000000000000000000000b9b962177c15353cd6aa49e26c2b627b9cc354570000000000000000000000000000000000000000000000000000000000000bb8000000000000000000000000000000000000000000000000000000000000003c0000000000000000000000000000000000000000000000000000000000000000fffffffffffffffffffffffffffffffffffffffffffffffffffffffffff2764c00000000000000000000000000000000000000000000000000000000000d89b4000000000000000000000000000000000000000000000000000000009502f9000000000000000000000000000000000000000000000000000000028048c5ec0000000000000000000000000000000000000000000000000000000000a3e9ab8000000000000000000000000023942af0f04a502516595b45029680fb64f87840000000000000000000000000000000000000000000000000000000000000018000000000000000000000000000000000000000000000000000000000000000000000000000000000000000000000000000000000000000000000000000000040000000000000000000000000b6c34a382a45f93682b03dca9c48e3710e76809f000000000000000000000000b9b962177c15353cd6aa49e26c2b627b9cc35457",
        "1765469320"
      ],
      "transaction": {
        "from": "0x23942af0f04a502516595b45029680fb64f87840",
        "to": "0x4b2c77d209d3405f41a037ec6c77f7f5b8e2ca80",
        "gas": "0x8e0bd",
        "value": "0x0",
        "input": "0xdd46508f000000000000000000000000000000000000000000000000000000000000004000000000000000000000000000000000000000000000000000000000693aec880000000000000000000000000000000000000000000000000000000000000300000000000000000000000000000000000000000000000000000000000000004000000000000000000000000000000000000000000000000000000000000000800000000000000000000000000000000000000000000000000000000000000002020d00000000000000000000000000000000000000000000000000000000000000000000000000000000000000000000000000000000000000000000000000020000000000000000000000000000000000000000000000000000000000000040000000000000000000000000000000000000000000000000000000000000020000000000000000000000000000000000000000000000000000000000000001a0000000000000000000000000b6c34a382a45f93682b03dca9c48e3710e76809f000000000000000000000000b9b962177c15353cd6aa49e26c2b627b9cc354570000000000000000000000000000000000000000000000000000000000000bb8000000000000000000000000000000000000000000000000000000000000003c0000000000000000000000000000000000000000000000000000000000000000fffffffffffffffffffffffffffffffffffffffffffffffffffffffffff2764c00000000000000000000000000000000000000000000000000000000000d89b4000000000000000000000000000000000000000000000000000000009502f9000000000000000000000000000000000000000000000000000000028048c5ec0000000000000000000000000000000000000000000000000000000000a3e9ab8000000000000000000000000023942af0f04a502516595b45029680fb64f87840000000000000000000000000000000000000000000000000000000000000018000000000000000000000000000000000000000000000000000000000000000000000000000000000000000000000000000000000000000000000000000000040000000000000000000000000b6c34a382a45f93682b03dca9c48e3710e76809f000000000000000000000000b9b962177c15353cd6aa49e26c2b627b9cc35457",
        "nonce": "0x7",
        "chainId": "0x14a34"
      },
      "additionalContracts": [],
      "isFixedGasLimit": false
    }
  ],
  "receipts": [
    {
      "status": "0x1",
      "cumulativeGasUsed": "0x10888b",
      "logs": [
        {
          "address": "0xb9b962177c15353cd6aa49e26c2b627b9cc35457",
          "topics": [
            "0xddf252ad1be2c89b69c2b068fc378daa952ba7f163c4a11628f55a4df523b3ef",
            "0x0000000000000000000000000000000000000000000000000000000000000000",
            "0x00000000000000000000000023942af0f04a502516595b45029680fb64f87840"
          ],
          "data": "0x000000000000000000000000000000000000000000000000000000012a05f200",
          "blockHash": "0x365b101cd0d2df3d6221472d45926de1215dfa55f5a8abb1e728ceddb05f83b6",
          "blockNumber": "0x213bfd9",
          "blockTimestamp": "0x693ade92",
          "transactionHash": "0xda2af1d7bb4b04f677d48948e8c7aaae5b96a1394dc12f9420589021db66f029",
          "transactionIndex": "0x7",
          "logIndex": "0x6",
          "removed": false
        },
        {
          "address": "0xb9b962177c15353cd6aa49e26c2b627b9cc35457",
          "topics": [
            "0xddf252ad1be2c89b69c2b068fc378daa952ba7f163c4a11628f55a4df523b3ef",
            "0x0000000000000000000000000000000000000000000000000000000000000000",
            "0x0000000000000000000000004db8b3faf4f26c04d6e456e8d5a0c02941eb772e"
          ],
          "data": "0x000000000000000000000000000000000000000000000000000000012a05f200",
          "blockHash": "0x365b101cd0d2df3d6221472d45926de1215dfa55f5a8abb1e728ceddb05f83b6",
          "blockNumber": "0x213bfd9",
          "blockTimestamp": "0x693ade92",
          "transactionHash": "0xda2af1d7bb4b04f677d48948e8c7aaae5b96a1394dc12f9420589021db66f029",
          "transactionIndex": "0x7",
          "logIndex": "0x7",
          "removed": false
        }
      ],
      "logsBloom": "0x00000000004100000000004000000000000000000000000000000000000000000000000000000000000080000000000000000200000000000000000000000000000000000000000000000008000000000000000000000000000000000000000000000000020000000000000000000880000000000000000000000010000000000200000000000000000000000000000000000000000000000000000000000000000000000000000000000000000000000000000000000000000000000000000000000002000000000000000000000000000000000000000000000000000020000000000000000020000000000000000000000000000000000000200000000000",
      "type": "0x2",
      "transactionHash": "0xda2af1d7bb4b04f677d48948e8c7aaae5b96a1394dc12f9420589021db66f029",
      "transactionIndex": "0x7",
      "blockHash": "0x365b101cd0d2df3d6221472d45926de1215dfa55f5a8abb1e728ceddb05f83b6",
      "blockNumber": "0x213bfd9",
      "gasUsed": "0x8a810",
      "effectiveGasPrice": "0x124f80",
      "blobGasUsed": "0x80bb0",
      "from": "0x23942af0f04a502516595b45029680fb64f87840",
      "to": null,
      "contractAddress": "0xb9b962177c15353cd6aa49e26c2b627b9cc35457",
      "daFootprintGasScalar": "0x138",
      "l1BaseFeeScalar": "0x44d",
      "l1BlobBaseFee": "0x1",
      "l1BlobBaseFeeScalar": "0xa118b",
      "l1Fee": "0x5c",
      "l1GasPrice": "0xf",
      "l1GasUsed": "0x69aa"
    },
    {
      "status": "0x1",
      "cumulativeGasUsed": "0x192fcf",
      "logs": [
        {
          "address": "0xb6c34a382a45f93682b03dca9c48e3710e76809f",
          "topics": [
            "0xddf252ad1be2c89b69c2b068fc378daa952ba7f163c4a11628f55a4df523b3ef",
            "0x0000000000000000000000000000000000000000000000000000000000000000",
            "0x00000000000000000000000023942af0f04a502516595b45029680fb64f87840"
          ],
          "data": "0x0000000000000000000000000000000000000000000000000000048c27395000",
          "blockHash": "0xe24b552864f31b9ec0aff203123593c07d28c2814b56ddf17dd8037743d74f19",
          "blockNumber": "0x213bfd9",
          "blockTimestamp": "0x693ade92",
          "transactionHash": "0x688dbaaadaa5c7463491b4d7c90849510c03868c7f542fc32171cbe7b3ce163c",
          "transactionIndex": "0x8",
          "logIndex": "0x8",
          "removed": false
        },
        {
          "address": "0xb6c34a382a45f93682b03dca9c48e3710e76809f",
          "topics": [
            "0xddf252ad1be2c89b69c2b068fc378daa952ba7f163c4a11628f55a4df523b3ef",
            "0x0000000000000000000000000000000000000000000000000000000000000000",
            "0x0000000000000000000000004db8b3faf4f26c04d6e456e8d5a0c02941eb772e"
          ],
          "data": "0x0000000000000000000000000000000000000000000000000000048c27395000",
          "blockHash": "0xe24b552864f31b9ec0aff203123593c07d28c2814b56ddf17dd8037743d74f19",
          "blockNumber": "0x213bfd9",
          "blockTimestamp": "0x693ade92",
          "transactionHash": "0x688dbaaadaa5c7463491b4d7c90849510c03868c7f542fc32171cbe7b3ce163c",
          "transactionIndex": "0x8",
          "logIndex": "0x9",
          "removed": false
        }
      ],
      "logsBloom": "0x00000000004000000000004000000000000000000000000000000000000800000000000000000000000080000000000000000000000000000000000000000000000000000000000000000008000000000000000000000000000000000000000000000000020000000000000000000880000000000000000000000410000000000200000000000000000000000000000000000000000000000000000000000000000000000000000000000000000000000000000000000000000000000000000000000002000000000000000000000000000000000000040000000000000020000000000000000000000000000000000000000000000000000000200000000000",
      "type": "0x2",
      "transactionHash": "0x688dbaaadaa5c7463491b4d7c90849510c03868c7f542fc32171cbe7b3ce163c",
      "transactionIndex": "0x8",
      "blockHash": "0xe24b552864f31b9ec0aff203123593c07d28c2814b56ddf17dd8037743d74f19",
      "blockNumber": "0x213bfd9",
      "gasUsed": "0x8a744",
      "effectiveGasPrice": "0x124f80",
      "blobGasUsed": "0x7fd10",
      "from": "0x23942af0f04a502516595b45029680fb64f87840",
      "to": null,
      "contractAddress": "0xb6c34a382a45f93682b03dca9c48e3710e76809f",
      "daFootprintGasScalar": "0x138",
      "l1BaseFeeScalar": "0x44d",
      "l1BlobBaseFee": "0x1",
      "l1BlobBaseFeeScalar": "0xa118b",
      "l1Fee": "0x60f",
      "l1GasPrice": "0xf",
      "l1GasUsed": "0x68ee"
    },
    {
      "status": "0x1",
      "cumulativeGasUsed": "0x19f91b",
      "logs": [
        {
          "address": "0x05e73354cfdd6745c338b50bcfdfa3aa6fa03408",
          "topics": [
            "0xdd466e674ea557f56295e2d0218a125ea4b4f0f6f3307b95f85e6110838d6438",
            "0xa5a6b8d962f75ea590783654f32b0ce918bcde091576e7fac65be1350e57ed9f",
            "0x000000000000000000000000b6c34a382a45f93682b03dca9c48e3710e76809f",
            "0x000000000000000000000000b9b962177c15353cd6aa49e26c2b627b9cc35457"
          ],
          "data": "0x0000000000000000000000000000000000000000000000000000000000000bb8000000000000000000000000000000000000000000000000000000000000003c000000000000000000000000000000000000000000000000000000000000000000000000000000000000000000000000000000010000000000000000000000000000000000000000000000000000000000000000000000000000000000000000",
          "blockHash": "0xe24b552864f31b9ec0aff203123593c07d28c2814b56ddf17dd8037743d74f19",
          "blockNumber": "0x213bfd9",
          "blockTimestamp": "0x693ade92",
          "transactionHash": "0xc97ea09fbdb8a480e87b40d523eb69a2a9939e56d5092ddb94c1909327503003",
          "transactionIndex": "0x9",
          "logIndex": "0xa",
          "removed": false
        }
      ],
      "logsBloom": "0x00000000000000000000000000000000000000000000000000000000000000000000000100000000000000000000000000000000000000000000000000000100000000008000000000000000000000000000000000000000000000000000000000000000000000000000000000000000000000000000000000000000000000000000000004000018000000000000000000000001000000000000000000200000000000000000000000000000000000000000000040000000000000040000000000000000001000000000000000000000000000000000200010000000000000000000000000000000002000000000000000010000000000000000000000000000",
      "type": "0x2",
      "transactionHash": "0xc97ea09fbdb8a480e87b40d523eb69a2a9939e56d5092ddb94c1909327503003",
      "transactionIndex": "0x9",
      "blockHash": "0xe24b552864f31b9ec0aff203123593c07d28c2814b56ddf17dd8037743d74f19",
      "blockNumber": "0x213bfd9",
      "gasUsed": "0xc94c",
      "effectiveGasPrice": "0x124f80",
      "blobGasUsed": "0x94b0",
      "from": "0x23942af0f04a502516595b45029680fb64f87840",
      "to": "0x05e73354cfdd6745c338b50bcfdfa3aa6fa03408",
      "contractAddress": null,
      "daFootprintGasScalar": "0x138",
      "l1BaseFeeScalar": "0x44d",
      "l1BlobBaseFee": "0x1",
      "l1BlobBaseFeeScalar": "0xa118b",
      "l1Fee": "0x70",
      "l1GasPrice": "0xf",
      "l1GasUsed": "0x7a3"
    },
    {
      "status": "0x1",
      "cumulativeGasUsed": "0x26081d",
      "logs": [
        {
          "address": "0xb6c34a382a45f93682b03dca9c48e3710e76809f",
          "topics": [
            "0x8c5be1e5ebec7d5bd14f71427d1e84f3dd0314c0f7b2291e5b200ac8c7c3b925",
            "0x00000000000000000000000023942af0f04a502516595b45029680fb64f87840",
            "0x000000000000000000000000000000000022d473030f116ddee9f6b43ac78ba3"
          ],
          "data": "0xffffffffffffffffffffffffffffffffffffffffffffffffffffffffffffffff",
          "blockHash": "0x9b5f369cae34e7136901d0d9293ab2ddae7a371e815b9e9fc56bad550df10d61",
          "blockNumber": "0x213bfd9",
          "blockTimestamp": "0x693ade92",
          "transactionHash": "0x7557d214c8bae18a3ef25571b9fe7d343b3aaab66d30444bc639429e480a1da8",
          "transactionIndex": "0xc",
          "logIndex": "0x36",
          "removed": false
        }
      ],
      "logsBloom": "0x00000000004000000000000000000000000000000000000000000000000800000000000000000000000080000000000000000000800000000000000000200000000000000000000000004000000000000000000000000800000000000000000000000000000000000000000000000000000000000000000000000400000000000200000000000000000000000000000000000000000000000000000000000000020000000000000000000000000000000000000000000000000000000000000000000000000000000000000000000000000000000000040000000000000000000010000000000000000000000000000000000000000000000000000000000000",
      "type": "0x2",
      "transactionHash": "0x7557d214c8bae18a3ef25571b9fe7d343b3aaab66d30444bc639429e480a1da8",
      "transactionIndex": "0xc",
      "blockHash": "0x9b5f369cae34e7136901d0d9293ab2ddae7a371e815b9e9fc56bad550df10d61",
      "blockNumber": "0x213bfd9",
      "gasUsed": "0xb61b",
      "effectiveGasPrice": "0x124f80",
      "blobGasUsed": "0x79e0",
      "from": "0x23942af0f04a502516595b45029680fb64f87840",
      "to": "0xb6c34a382a45f93682b03dca9c48e3710e76809f",
      "contractAddress": null,
      "daFootprintGasScalar": "0x138",
      "l1BaseFeeScalar": "0x44d",
      "l1BlobBaseFee": "0x1",
      "l1BlobBaseFeeScalar": "0xa118b",
      "l1Fee": "0x5c",
      "l1GasPrice": "0xf",
      "l1GasUsed": "0x640"
    },
    {
      "status": "0x1",
      "cumulativeGasUsed": "0x26be38",
      "logs": [
        {
          "address": "0xb9b962177c15353cd6aa49e26c2b627b9cc35457",
          "topics": [
            "0x8c5be1e5ebec7d5bd14f71427d1e84f3dd0314c0f7b2291e5b200ac8c7c3b925",
            "0x00000000000000000000000023942af0f04a502516595b45029680fb64f87840",
            "0x000000000000000000000000000000000022d473030f116ddee9f6b43ac78ba3"
          ],
          "data": "0xffffffffffffffffffffffffffffffffffffffffffffffffffffffffffffffff",
          "blockHash": "0x9b5f369cae34e7136901d0d9293ab2ddae7a371e815b9e9fc56bad550df10d61",
          "blockNumber": "0x213bfd9",
          "blockTimestamp": "0x693ade92",
          "transactionHash": "0xea2e660b05319c5d420d327f1c75cba1106b6922b26dd467277a3cc8c80ffcda",
          "transactionIndex": "0xd",
          "logIndex": "0x37",
          "removed": false
        }
      ],
      "logsBloom": "0x00000000004100000000000000000000000000000000000000000000000000000000000000000000000080000000000000000200800000000000000000200000000000000000000000004000000000000000000000000800000000000000000000000000000000000000000000000000000000000000000000000000000000000200000000000000000000000000000000000000000000000000000000000000020000000000000000000000000000000000000000000000000000000000000000000000000000000000000000000000000000000000000000000000000000000010000000000020000000000000000000000000000000000000000000000000",
      "type": "0x2",
      "transactionHash": "0xea2e660b05319c5d420d327f1c75cba1106b6922b26dd467277a3cc8c80ffcda",
      "transactionIndex": "0xd",
      "blockHash": "0x9b5f369cae34e7136901d0d9293ab2ddae7a371e815b9e9fc56bad550df10d61",
      "blockNumber": "0x213bfd9",
      "gasUsed": "0xb61b",
      "effectiveGasPrice": "0x124f80",
      "blobGasUsed": "0x79e0",
      "from": "0x23942af0f04a502516595b45029680fb64f87840",
      "to": "0xb9b962177c15353cd6aa49e26c2b627b9cc35457",
      "contractAddress": null,
      "daFootprintGasScalar": "0x138",
      "l1BaseFeeScalar": "0x44d",
      "l1BlobBaseFee": "0x1",
      "l1BlobBaseFeeScalar": "0xa118b",
      "l1Fee": "0x5c",
      "l1GasPrice": "0xf",
      "l1GasUsed": "0x640"
    },
    {
      "status": "0x1",
      "cumulativeGasUsed": "0x277902",
      "logs": [
        {
          "address": "0x000000000022d473030f116ddee9f6b43ac78ba3",
          "topics": [
            "0xda9fa7c1b00402c17d0161b249b1ab8bbec047c5a52207b9c112deffd817036b",
            "0x00000000000000000000000023942af0f04a502516595b45029680fb64f87840",
            "0x000000000000000000000000b6c34a382a45f93682b03dca9c48e3710e76809f",
            "0x0000000000000000000000004b2c77d209d3405f41a037ec6c77f7f5b8e2ca80"
          ],
          "data": "0x000000000000000000000000ffffffffffffffffffffffffffffffffffffffff0000000000000000000000000000000000000000000000000000ffffffffffff",
          "blockHash": "0x9b5f369cae34e7136901d0d9293ab2ddae7a371e815b9e9fc56bad550df10d61",
          "blockNumber": "0x213bfd9",
          "blockTimestamp": "0x693ade92",
          "transactionHash": "0x94fa82ac1947bf3177643ad5506b0be8d02410b3aa83bfbfbc40d0c1e5a860c2",
          "transactionIndex": "0xe",
          "logIndex": "0x38",
          "removed": false
        }
      ],
      "logsBloom": "0x000100000040000100000000000000000000000000000000000000000000000000000000000000000000800000000000000000000000000000080000100800000000000000000000000000000000000000000000000000000000000000000000000000000000000000000000000000000000000000000000000000000000000002200000000000000000000000000000000000000000000000000000000000000000000000000000000000000000000000000000400000000000000c0000000000000000000000000000000000000000000000000000000040000000000000000000000000000000000000000000000000010000000000000000000000000400",
      "type": "0x2",
      "transactionHash": "0x94fa82ac1947bf3177643ad5506b0be8d02410b3aa83bfbfbc40d0c1e5a860c2",
      "transactionIndex": "0xe",
      "blockHash": "0x9b5f369cae34e7136901d0d9293ab2ddae7a371e815b9e9fc56bad550df10d61",
      "blockNumber": "0x213bfd9",
      "gasUsed": "0xbaca",
      "effectiveGasPrice": "0x124f80",
      "blobGasUsed": "0x8880",
      "from": "0x23942af0f04a502516595b45029680fb64f87840",
      "to": "0x000000000022d473030f116ddee9f6b43ac78ba3",
      "contractAddress": null,
      "daFootprintGasScalar": "0x138",
      "l1BaseFeeScalar": "0x44d",
      "l1BlobBaseFee": "0x1",
      "l1BlobBaseFeeScalar": "0xa118b",
      "l1Fee": "0x5c",
      "l1GasPrice": "0xf",
      "l1GasUsed": "0x702"
    },
    {
      "status": "0x1",
      "cumulativeGasUsed": "0x2833cc",
      "logs": [
        {
          "address": "0x000000000022d473030f116ddee9f6b43ac78ba3",
          "topics": [
            "0xda9fa7c1b00402c17d0161b249b1ab8bbec047c5a52207b9c112deffd817036b",
            "0x00000000000000000000000023942af0f04a502516595b45029680fb64f87840",
            "0x000000000000000000000000b9b962177c15353cd6aa49e26c2b627b9cc35457",
            "0x0000000000000000000000004b2c77d209d3405f41a037ec6c77f7f5b8e2ca80"
          ],
          "data": "0x000000000000000000000000ffffffffffffffffffffffffffffffffffffffff0000000000000000000000000000000000000000000000000000ffffffffffff",
          "blockHash": "0x9b5f369cae34e7136901d0d9293ab2ddae7a371e815b9e9fc56bad550df10d61",
          "blockNumber": "0x213bfd9",
          "blockTimestamp": "0x693ade92",
          "transactionHash": "0xb000b8ec25e7d6c5a6cfad66d12d55c6062b52e1c99d2b0ec19adfa1de6a6879",
          "transactionIndex": "0xf",
          "logIndex": "0x39",
          "removed": false
        }
      ],
      "logsBloom": "0x00010000004000010000000000000000000000000000000000000000000000000000000000000000000080000000000000000000000000000008000010080000000000008000000000000000000000000000000000000000000000000000000000000000000000000000000000000000000000000000000000000000000000000220000000000010000000000000000000000000000000000000000000000000000000000000000000000000000000000000000000000000000000080000000000000000000000000000000000000000000000000000000050000000000000000000000000000000000000000000000000000000000000000000000000000400",
      "type": "0x2",
      "transactionHash": "0xb000b8ec25e7d6c5a6cfad66d12d55c6062b52e1c99d2b0ec19adfa1de6a6879",
      "transactionIndex": "0xf",
      "blockHash": "0x9b5f369cae34e7136901d0d9293ab2ddae7a371e815b9e9fc56bad550df10d61",
      "blockNumber": "0x213bfd9",
      "gasUsed": "0xbaca",
      "effectiveGasPrice": "0x124f80",
      "blobGasUsed": "0x8880",
      "from": "0x23942af0f04a502516595b45029680fb64f87840",
      "to": "0x000000000022d473030f116ddee9f6b43ac78ba3",
      "contractAddress": null,
      "daFootprintGasScalar": "0x138",
      "l1BaseFeeScalar": "0x44d",
      "l1BlobBaseFee": "0x1",
      "l1BlobBaseFeeScalar": "0xa118b",
      "l1Fee": "0x5c",
      "l1GasPrice": "0xf",
      "l1GasUsed": "0x702"
    },
    {
      "status": "0x1",
      "cumulativeGasUsed": "0x2ea139",
      "logs": [
        {
          "address": "0x4b2c77d209d3405f41a037ec6c77f7f5b8e2ca80",
          "topics": [
            "0xddf252ad1be2c89b69c2b068fc378daa952ba7f163c4a11628f55a4df523b3ef",
            "0x0000000000000000000000000000000000000000000000000000000000000000",
            "0x00000000000000000000000023942af0f04a502516595b45029680fb64f87840",
            "0x0000000000000000000000000000000000000000000000000000000000002411"
          ],
          "data": "0x",
          "blockHash": "0x9b5f369cae34e7136901d0d9293ab2ddae7a371e815b9e9fc56bad550df10d61",
          "blockNumber": "0x213bfd9",
          "blockTimestamp": "0x693ade92",
          "transactionHash": "0x60fe850121f14e4ba0c3555b54f3b0ddc74371b23f1e6b5041a24b261ae5200c",
          "transactionIndex": "0x10",
          "logIndex": "0x3a",
          "removed": false
        },
        {
          "address": "0x05e73354cfdd6745c338b50bcfdfa3aa6fa03408",
          "topics": [
            "0xf208f4912782fd25c7f114ca3723a2d5dd6f3bcc3ac8db5af63baa85f711d5ec",
            "0xa5a6b8d962f75ea590783654f32b0ce918bcde091576e7fac65be1350e57ed9f",
            "0x0000000000000000000000004b2c77d209d3405f41a037ec6c77f7f5b8e2ca80"
          ],
          "data": "0xfffffffffffffffffffffffffffffffffffffffffffffffffffffffffff2764c00000000000000000000000000000000000000000000000000000000000d89b4000000000000000000000000000000000000000000000000000000009502f9000000000000000000000000000000000000000000000000000000000000002411",
          "blockHash": "0x9b5f369cae34e7136901d0d9293ab2ddae7a371e815b9e9fc56bad550df10d61",
          "blockNumber": "0x213bfd9",
          "blockTimestamp": "0x693ade92",
          "transactionHash": "0x60fe850121f14e4ba0c3555b54f3b0ddc74371b23f1e6b5041a24b261ae5200c",
          "transactionIndex": "0x10",
          "logIndex": "0x3b",
          "removed": false
        },
        {
          "address": "0xb6c34a382a45f93682b03dca9c48e3710e76809f",
          "topics": [
            "0xddf252ad1be2c89b69c2b068fc378daa952ba7f163c4a11628f55a4df523b3ef",
            "0x00000000000000000000000023942af0f04a502516595b45029680fb64f87840",
            "0x00000000000000000000000005e73354cfdd6745c338b50bcfdfa3aa6fa03408"
          ],
          "data": "0x000000000000000000000000000000000000000000000000000000009502f900",
          "blockHash": "0x9b5f369cae34e7136901d0d9293ab2ddae7a371e815b9e9fc56bad550df10d61",
          "blockNumber": "0x213bfd9",
          "blockTimestamp": "0x693ade92",
          "transactionHash": "0x60fe850121f14e4ba0c3555b54f3b0ddc74371b23f1e6b5041a24b261ae5200c",
          "transactionIndex": "0x10",
          "logIndex": "0x3c",
          "removed": false
        },
        {
          "address": "0xb9b962177c15353cd6aa49e26c2b627b9cc35457",
          "topics": [
            "0xddf252ad1be2c89b69c2b068fc378daa952ba7f163c4a11628f55a4df523b3ef",
            "0x00000000000000000000000023942af0f04a502516595b45029680fb64f87840",
            "0x00000000000000000000000005e73354cfdd6745c338b50bcfdfa3aa6fa03408"
          ],
          "data": "0x000000000000000000000000000000000000000000000000000000009502f900",
          "blockHash": "0x9b5f369cae34e7136901d0d9293ab2ddae7a371e815b9e9fc56bad550df10d61",
          "blockNumber": "0x213bfd9",
          "blockTimestamp": "0x693ade92",
          "transactionHash": "0x60fe850121f14e4ba0c3555b54f3b0ddc74371b23f1e6b5041a24b261ae5200c",
          "transactionIndex": "0x10",
          "logIndex": "0x3d",
          "removed": false
        }
      ],
      "logsBloom": "0x00000000004100010000000000000010000000000000000000000000000800000100000100000000000080000000000000000200000000000008000010000900000000000010000000000008000000000000000000100000000000008000000000000000020000000000000200000800000000000000000000000410000000000200000005000000000000000000000000000000000000000000000000000000000004000000000000000000000000000000000000000000000000000000000000000002001000000000000000000000000000000000240000000000000020000000000000000020002400000800000004000000000000000000000000000000",
      "type": "0x2",
      "transactionHash": "0x60fe850121f14e4ba0c3555b54f3b0ddc74371b23f1e6b5041a24b261ae5200c",
      "transactionIndex": "0x10",
      "blockHash": "0x9b5f369cae34e7136901d0d9293ab2ddae7a371e815b9e9fc56bad550df10d61",
      "blockNumber": "0x213bfd9",
      "gasUsed": "0x66d6d",
      "effectiveGasPrice": "0x124f80",
      "blobGasUsed": "0x12d08",
      "from": "0x23942af0f04a502516595b45029680fb64f87840",
      "to": "0x4b2c77d209d3405f41a037ec6c77f7f5b8e2ca80",
      "contractAddress": null,
      "daFootprintGasScalar": "0x138",
      "l1BaseFeeScalar": "0x44d",
      "l1BlobBaseFee": "0x1",
      "l1BlobBaseFeeScalar": "0xa118b",
      "l1Fee": "0x5c",
      "l1GasPrice": "0xf",
      "l1GasUsed": "0xf7a"
    }
  ],
  "libraries": [],
  "pending": [],
  "returns": {},
  "timestamp": 1765465747093,
  "chain": 84532,
  "commit": null
}